:020000040000fa
:080000000001040000000000f3
:020000040000fa
:100200006ff7200080ff2000000188000000000040
:10021000050007000c000700b619020000000000ee
:100220000040da000000fe004440a900c056200053
:100230000000e0000300320000002000a001880060
:100240004440a8000000060080d3210001002000e7
:100250001600370062004000e080480091018800ed
:100260009001ba0062004000e080480091018800df
:100270009002ba0062004000e08048000002eb00fb
:100280006028e10005003a008301e900070033001f
:10029000038009000059eb00040037006128e100e9
:1002a000010032000082eb00050007009101880088
:1002b0001001ba000200e000e6ff3a00000005006d
:1002c000910188008002780062004000e0804800d0
:1002d0003559ba008301e900080032002559ba00f7
:1002e0008301e900050032000400e000f4ff320061
:1002f00015d9ba008301e900f1ff3a0000000600b9
:10030000040037000204e00001003a00000005008c
:100310000000e80010417800814f5100f9ff3a00d9
:100320000000060080007800010037000000e800af
:100330001004e000fdff3a0001005000000006003c
:100340008001780002003700b15978000201e9000d
:100350000200e000fcff3a00000006008001780087
:100360000001780031407800005978000004e00076
:10037000fcff3a0003007800000006000b00370085
:100380001042780091417800834f520004003200ff
:100390000081eb0007003900120020000500370043
:1003a0000000e8008100e8000201e9000200e0002e
:1003b000f3ff3a0002007800000006008001780098
:1003c00002003700815978000201e9000200e000d4
:1003d000fcff3a0000000600811f78000100e000e9
:1003e00002003d0060001000e08018000300e00003
:1003f00002003d0060011100e081190005000700c6
:100400004f00e00002003b0060001000e080180098
:1004100000000600080007000400be0000000600ff
:10042000020ab900001bb9000200b80081004200b6
:1004300081004300000006006022b8000602200090
:100440000000d0008180d2000482d2008582d200d8
:100450000000a0000202520083825a000300310013
:100460000202420083824a000000a1000603e90064
:10047000f3ff3a00000006000de2a9008d20a9005c
:100480008d40a9008520a9008540a9000000060034
:10049000a21088006010880071108800000006001b
:1004a00017e2a9008f00a9008f20a9008700a900ea
:1004b0008720a90000000600f2108800b010880014
:1004c000c1108800000006000ec2bf00610060007d
:1004d000000006000cc2bf0066406000e64f5000fe
:1004e00002003a009010800000000600901080008a
:1004f000f00fb2000000060019c2bf000004a20005
:1005000061006000000006008000780016c2bf0095
:1005100066406000e64f500001003200f10fb2006b
:10052000d11088000000060018c2bf006100600002
:100530000000060016c2bf0066406000e64f500093
:1005400002003a00e010800000000600e010800089
:10055000f00fb200000006000fc2bf000004a200ae
:100560006100600000000600800078000cc2bf003f
:1005700066406000e64f500001003200f10fb2000b
:100580008110880000000600905280000080fb006f
:1005900000000600000178000040eb000100370079
:1005a000324068008100e900e18f4000fcff3a0022
:1005b0000080fb0000000600881f78000001780022
:1005c000010478000d003700000178000d003700ad
:1005d000c0c2b300924f100002003a000201e800ce
:1005e00006003700c10220000200780044ff070027
:1005f0000000e000f4ff32000001e8000804e90018
:10060000f3ff3a00020078004f0478000000060073
:10061000c10220003aff07000000e00001003200a4
:100620000000e80000000600800078001041900003
:10063000c0c2b300804f510003003a0000cdb300a8
:1006400011404000060037001100fb006a00b900ad
:100650000042b0000240400002cdb3000240400022
:100660000080fb00000006009000fb006a09b90052
:1006700004c2b300844041001040900080c040009c
:1006800000cdb30000c040000080fb000000060069
:10069000df69ed008720a900004f8000b080fb00db
:1006a000d1108800004f88008f20a80000000600ad
:1006b000522aed008540a900b0588000b080fb00b0
:1006c00081108800b05888008d40a8000000060006
:1006d000889fbe008a1f7800abff070000457800a6
:1006e0000004e000fcff3a00c0b1200081b120000e
:1006f00003000900315878008083200009ff0700bb
:100700000040e8008084fb000900e80020ebb7000f
:100710004800de0021ebb700c0c4b30022ebb700f5
:1007200000ccb30023ebb70048b2200009017800e9
:10073000818320000800780001ff0700e480440066
:1007400000b2200093ff070080747c0069804400a1
:1007500090528800c0b12000b0588800d4ff070034
:100760000a00780045eeb7004f0578004f04be0040
:1007700000000600881f780083ff0700004478000f
:100780000004e000fcff3a00c0b1200081b120006d
:10079000030009003158780070c0b30020ebb700a7
:1007a0000800780021ebb70070c7b30022ebb70058
:1007b00000ccb30023ebb70040b22000218320001f
:1007c0000500090031587800a100200000b2200087
:1007d00070ff07002aebb700f0002000905288005d
:1007e000c0b12000b0588800b1ff070008007800b1
:1007f0003deeb7004f04780000000600c0b12000b5
:1008000081b12000030009003158780050c0b300c6
:1008100020ebb700216bef0030c4b30022ebb70030
:1008200000ccb30023ebb700bbc8bf0024ebb7007c
:10083000304ae200020032000074a00024ebb7004e
:1008400048cabf0025ebb700276bef00266bef000f
:100850008100200000b220004eff070028ebb70007
:10086000d000200090528800c0b12000b05888000d
:100870008fff37008000eb000800370092652000f2
:100880000300200061015100e0815900e10f4100a7
:10089000e08f4900fbff3a008100e800808f5000a4
:1008a000f6ff3a0000000600c9c2bf000038a300ee
:1008b00002003200306aef000200370010c0b300bf
:1008c00030eab700912c200091407800c9c2bf00e7
:1008d0000080fb004200de000004a20061416000d5
:1008e0000118a30003003200610061000000d00085
:1008f00000000600100020000204e00001003200a9
:1009000030002000000006000000fe00000006008d
:10091000881f780051c0b3000100780024ebb700b5
:1009200020c0b30025ebb7000100780026ebb7002c
:100930004bcabf0027ebb7003052800028ebb7004e
:100940004800de0029ebb70047cebf000080fb0067
:100950002aebb7002b6bef00c0b1200081b1200063
:10096000030009003158780090c0b30020ebb700b5
:100970000044eb000800780021ebb70030c5b3005d
:1009800022ebb70000ccb30023ebb700c10020007e
:1009900000b22000fffe07002cebb7001001200082
:1009a00090528800c0b12000b058880040ff070076
:1009b0000800780043eeb7004f04780000000600fe
:1009c000881f780060e0200071e02000040009002a
:1009d0003158780060e020009080fb0007cebf0017
:1009e0004800dd000102700081e0200091407800a5
:1009f0008180fb0009cebf004800dd00810270004d
:100a0000a8e02000184478008c60a900f052800013
:100a100001538000b2528000c35280000200500097
:100a2000838058000402400085824800f0ff2500c2
:100a3000d1832000800f5200818f5a0004003400bf
:100a400000002a00217c2f0004024000858248001b
:100a5000f45288000553880002642000030020003f
:100a60000400be005cfe070002642000000151008b
:100a7000825388000804e000010032004c6aef0055
:100a80008c60a8004f04780000000600881f7800e2
:100a900060e0200071e02000040009003158780077
:100aa00060e020009080fb0007cebf004800dd0022
:100ab0000101700081e02000914078008180fb00fe
:100ac00009cebf004800dd0081017000a8e02000d1
:100ad000184478008c60a900f4528000055380000f
:100ae000e00f5100e08f59000f003d006000110041
:100af000e0801900840f5000858f580007003600f1
:100b0000040150008581580000002600d183200098
:100b1000020050008380580010003700000052008f
:100b200081805a000d0037000201420083814a0093
:100b3000f252880003538800f0ff2500d183200083
:100b4000800f5100818f59000600360000002a00f6
:100b5000217c2f000200400083804800f052880072
:100b6000015388000264200003002000f05280003e
:100b70000153800027fe070002642000000151009d
:100b8000825388000804e000010032004c6aef0044
:100b90008c60a8004f0478000000060060e0200090
:100ba00071e0200004000900315878008c60a90031
:100bb0008c60a800b2528000c352800060e0200028
:100bc0009080fb0007cebf004800dd0001027000ee
:100bd00081e02000914078008180fb0009cebf00b9
:100be0004800dd0081027000f05280000153800057
:100bf0000200500083805800040151008581590093
:100c00000001fd0032e8b7000001fd004812de00df
:100c10000002fd0033e8b7000002fd008001fd0086
:100c200034e8b7008001fd004819de000001fd0036
:100c300035e8b7000001fd0036e8b7004800de00e7
:100c400037e8b70010c0b3003deeb7000000060063
:100c500060e0200071e020000300090031587800b6
:100c600060e020009080fb0007cebf004800dd0060
:100c7000010070005041880081e020009140780020
:100c80008180fb0009cebf004800dd00010070003c
:100c90004041880000000600881f7800c0b1200095
:100ca00081b12000030009003158780020c0b30052
:100cb00020ebb7000044eb000800780021ebb70000
:100cc00010c6b30022ebb70000ccb30023ebb70093
:100cd00060c0b30024ebb7005100200000b2200038
:100ce0002cfe070025ebb700a000200090528800e2
:100cf000c0b12000b05888006dfe070008007800e1
:100d000039eeb7004f04780000000600889fbe004f
:100d10008004780031cabf00f803200007003200c9
:100d2000f8012000e14f500004003200f8002000dc
:100d3000e24f500001003200a80020008d40a900c1
:100d40008d20a900ccfd070008017800d17d2f007f
:100d500000f02c00cefd07000ec2bf000018a3005b
:100d6000010032000e22a900f0f32f000e22b6007f
:100d7000216aef000900e000010032008d20a80088
:100d80004f04be0000000600881f780040b220001b
:100d9000518020001f00090031587800c0b12000a8
:100da00081b12000030009003158780010c2b3005f
:100db00020ebb7000044eb000800780021ebb700ff
:100dc00020c7b30022ebb70000ccb30023ebb70081
:100dd0004102200000b22000eefd070044ebb70006
:100de0009002200090528800c0b12000b0588800c6
:100df0002ffe07000800780037eeb7004f04780098
:100e000000000600889fbe008d20a9008d40a9002b
:100e10004001200097fe0700d000200080108800cd
:100e20004006200093fe07000ec2bf000018a3007a
:100e3000030032000e22a90001003700901080004c
:100e40000ec2bf000008a300fcff3a00a805200066
:100e5000881088004006200086fe07000ec2bf00f2
:100e60000008a3001700320090108000884f500047
:100e700014003a00d90020008910880040062000a4
:100e80007cfe07007904540088108800400120008f
:100e900078fe0700400520008010880040012000f7
:100ea00074fe0700881088004001200071fe0700d2
:100eb00089108800400120006efe070011c0b300b9
:100ec000010037008040eb000ec2bf000018a300f5
:100ed000010032000e22a9008d20a8008d40a8003c
:100ee0000180fb004f04be0000000600889fbe008a
:100ef000a1022000c0a9200001fd07000004780025
:100f00000000e00007003a0031be29008083200085
:100f100012fd070010c0b30045eeb700880178004d
:100f20002900370080047800805ceb00c0a9200015
:100f3000fcfc0700e10f5000030036008040eb008e
:100f4000c2a920000300370021bf29001900370083
:100f5000b2c068000000e900e10f4000fcff3a0069
:100f60000180fb004400de00e94f50000200360023
:100f70007043b000010037000043b0000881e80072
:100f80008001eb00994f50000f003a006fc06000e5
:100f9000e94f5000020036007043b00001003700f6
:100fa0000043b00013002000924f500006003200b2
:100fb00031c0290080832000e8fc070010c0b30086
:100fc00045eeb7008001eb00030078004f04be003f
:100fd00000000600881f78006bfd070000447800c1
:100fe0000004e000fcff3a0002642000030020003f
:100ff000105380002153800009fd07000004fd000c
:1010000049eeb7000004fd008c60a900f452800096
:1010100005538000d2528000e3528000020050004d
:10102000838058000f003b0060001000e080180033
:10103000840f5000858f58000700360004015000cf
:101040008581580000002600d18320000200500056
:1010500083805800100037000000520081805a0041
:101060000d0037000001420081814a00f2528800e1
:1010700003538800f0ff2500d1832000800f51002a
:10108000818f59000600360000002a00217c2f00c5
:101090000200400083804800f0528800015388001d
:1010a0000264200003002000f05280000153800001
:1010b000d8fc070002642000000151008253880020
:1010c0003a4ee200020032003a6eef004c6aef0046
:1010d0008c60a8004f047800000006000040eb0080
:1010e000bde8b700c4e8b700c5e8b700c6e8b70078
:1010f000b09520001046880000000600728c200089
:10110000bd48e20001003a003295200080b1200085
:1011100003000900305978004200b100c5c8bf0083
:101120008081fb000300e80080007800f10fb2002e
:10113000414198004800de005041980070c6b3005d
:101140006041980000ccb30070419800c4c8bf0053
:1011500001406800c4e8b700d24090000140680038
:10116000c4e8b700e240900001406800c4e8b7005e
:10117000f240900001406800c4e8b70083004100dd
:101180008048980002468800bd48e2000300320013
:10119000bd68ef00b09520000300370010c0b30019
:1011a000bde8b700f08c200010468800c568ef004d
:1011b000c468ef00bec8bf00030032000040e90071
:1011c000bee8b70002003a0069c04100c6e8b700b7
:1011d00000000600881f7800a1538000b0538000f3
:1011e000810f5000470032008f00a900b0a72000f7
:1011f000614478000100e800a0538800ff0f500010
:1012000001003600742aef008f00a8000800780063
:101210007aeab7006a2aef00bc48e2001400320004
:101220001b4ae20012003a00c548ec0080407800fa
:10123000c5e8b700e0c7b30080cf50000600360015
:10124000c648e20003003200a4ff070061c1290084
:101250001a003700a9ff07001046800008587800e0
:101260001046880008407800c4c8b600c4e8b7003b
:10127000ed4f540023003200c15380000100e00014
:1012800009003a0040c2b300804f54001d003a00ec
:1012900010002000c0538800080078009beab700c7
:1012a000010078001800370060072000808f500090
:1012b00007003600782aef00e1c229008083200071
:1012c00026fc070010c0b30045eeb7000d00370044
:1012d000b2a92000ea4f540007003a000040eb009a
:1012e000807079000140e80017eab700782aef0023
:1012f0001000200004003700887079000100e80029
:10130000c05388000000eb004f0478000000060086
:10131000881f78006200200071c42900c0a9200045
:1013200016fc07000000e0000c003a0071002000ed
:10133000b0a92000a0fc0700800078000000e000b9
:10134000560032001040780023eab7000180e80020
:10135000b5fc070029eab700520037006200200000
:10136000e1c42900c0a9200004fc07000000e0003f
:1013700046003a00224ae2004a00320022eab70060
:1013800020aa2000b8fc07002feab70040aa2000de
:10139000b5fc07002eeab70060aa2000b2fc0700e7
:1013a0002deab70020aa200099fc07000000e00009
:1013b0003a0032009040780010c4b30080cf500053
:1013c0000c003a0000c8bf00040032000040e900f1
:1013d00000e8b70000c3b3000400370020c3b30027
:1013e000234ae3000100320010c3b30024eab7002f
:1013f0000e00370060c5b30080cf500005003a00f2
:1014000000c3b30024eab70030c0b30000e8b7005f
:101410000600370051c5290080832000cffb07005c
:1014200010c0b30045eeb7001e003700a100200039
:10143000b0a9200060fc0700000478000000e00074
:1014400016003200c0c2b300984f100004003a00ea
:10145000256aef00276aef00266aef0009003700cf
:101460000800780080fc070026eab7000880e80042
:101470007dfc070027eab700640044007afc0700ff
:1014800025eab7001a6aef00060037004acabf0013
:1014900063405000e14f5000020036000000eb00b6
:1014a00001003700100020004f0478000000060003
:1014b000889fbe001b4ae2003d003a0028cabf00d8
:1014c000030032000040e90028eab7003800370086
:1014d00086fe07000004e000350032008cff0700a4
:1014e000804078000004e00013003a00bc48e200ad
:1014f0002f003a001a4aec001aeab700e24f5000f7
:101500002b003600010078001aeab70018c0b300bb
:101510000004fd001beab70016eab7000004fd0056
:1015200051c62900808320008cfb0700080078004a
:1015300045eeb7001e0037002fcabf000080fb0039
:101540000100200002e1200003002000b4fb07009e
:101550000004be002ecabf000080fb000100200076
:10156000c203200003002000adfb07000804400078
:10157000898448002dcabf000080fb0001002000c4
:1015800008004000898048001053880021538800db
:10159000494ee20006003200d0528000e152800045
:1015a000e00f5000e08f58000100320089fe070074
:1015b0004f04be0000000600881f7800a1a4200090
:1015c0009140780063c05000e14f50005b0036004e
:1015d000e2cf50000b003a0018cabf00bc48e2003e
:1015e000040032000080fb0000004000a1ea20005f
:1015f000220037000080fb000000400021eb2000ab
:101600001e003700bc48e2000500320018cabf00c7
:101610000080fb0000004000a1ee20001700370012
:1016200021a32000914078008180fb0033cabf00d5
:101630004800dd00810070000148a3000500320071
:1016400018cabf000080fb0000004000a1ed200090
:101650000a00370018cabf000138a3000400320096
:101660000080fb0000004000a1eb200003003700d9
:101670000080fb0000004000a1ec2000e08078002a
:101680000100e0002d003200289e200008007800b4
:1016900032fb07000800780022fb07000004e90085
:1016a00088007800309e2000bafb07008041780057
:1016b000319e20008100440001017800a0c2b300e7
:1016c000005978000380fb004400de008180e800c0
:1016d00074c3b300e94f500001003e0004c3b300df
:1016e000044940006fc061000101e800e94f50006b
:1016f0000300360073c3b300834840000200370084
:1017000004c3b30084484000d0c0b300004978004f
:10171000a0c0b300104198000040eb0020419800a9
:10172000209e2000004f880066404400dfe9b7009b
:10173000d7fb070010002000010037000000eb007d
:101740004f04780000000600df49e20041003a0043
:10175000194ae2003f003a00a1a42000914078001d
:1017600063c05000e14f500004003e001b6aef00d0
:1017700050c0b30028eab70000000600e2cf5000d6
:1017800012003a0051538000007d2000808f5000ed
:10179000070036006a2aef0051c729008083200025
:1017a000eefa070010c0b30045eeb700070037009f
:1017b000a0a72000a2c0b300904f110025003a005e
:1017c000f0042000808f500022003600b0a12000dd
:1017d00011c0b30090cf100010003a00186aef005b
:1017e000bc48e2000200320073ff07000600370029
:1017f000164ae20004003200166aef006eff07008e
:1018000040c1b30019eab70010c0b30018eab7002e
:1018100020c0b3001beab7000000060066ff070007
:10182000804078000004e00006003a0050c0b30099
:1018300028eab7008000fd001beab7008000fd0029
:1018400026fe3700186aec001b6aec0040c1b300aa
:1018500019eab70000000600881f7800000478002d
:101860008f20a9008f00a9000dfb07004acabf0006
:10187000e24f500003003200f2072000e44f500016
:1018800001003a00f2032000d17d2f0000f02c006f
:1018900009fb070018c2bf000018a30001003200b6
:1018a0001822a900f0f32f001822b600742aef00c6
:1018b000762aef000800e000010032008f00a80047
:1018c0004f047800000006008f20a9008720a9009f
:1018d000df69ef00a0a4200021c0b30090cf10006a
:1018e00002003a0010c0b30016eab70010c0b300ff
:1018f0001beab700782aef0010002000d6ff07008f
:101900000060fe0000000600889fbe000000eb00a3
:10191000d1ff0700d8fa07004acabf00e24f5000c3
:1019200003003200f2072000e44f500001003a00ab
:10193000f2032000d17d2f0000f02c00d4fa070024
:10194000f0f32f000e22b6008044eb00defa070011
:101950000004e0000e003200defa070000447800c8
:10196000fb4f5000020032008044eb0003003700c0
:101970008944e800e2cf540011003e00defa07007f
:101980000004e000fdff3a000880fb00defa0700db
:10199000e5fa07000004e00007003200e5fa07005e
:1019a00000447800ecfa07000004e000fdff3a0074
:1019b0000880fb00ecfa07000060fe00e3ff370040
:1019c0003c6eef00b8fb070031eab7004a4ae2007c
:1019d00001003200bcff07004f04be0000000600fb
:1019e000809fbe00821f7800925280000200e000bb
:1019f00006003200b0588000b080fb0081108800e3
:101a0000b05888000200e9000d003700c6c8bf00ca
:101a10000d0032000080fb009052880001468000db
:101a2000b15888000001fd00c6e8b7000001fd00c4
:101a30003181fb0082108800b15888000000e90065
:101a400090528800010037008d40a9008540a90010
:101a50004f0178004f00be0000400600809fbe008e
:101a6000821f7800f29d2000124178000204e000fd
:101a700007003200004f8000b080fb00d1108800ca
:101a8000004f88000240e900dfe9b700010037009d
:101a90008f20a9008720a9004f0178004f00be00c9
:101aa000004006003600f800809fbe00829fbe0006
:101ab000849fbe00869fbe00889fbe000ec2bf00ee
:101ac00062406000790032000e22a9000900370050
:101ad0000ec2bf000018a300020032000e22a900af
:101ae00019c0b3000ec2bf000028a30003003200db
:101af0009010800019c0b3006d0037009310800073
:101b00000341780011a22000914078000104e00018
:101b10000a003a00e2cf510065003a0060dd200083
:101b2000a06e88008000fd0020eab7001deab70023
:101b30008000fd0010c0b3002c00370021cabf0098
:101b4000e14f50002b003a00034078001dcab60058
:101b50001deab700a06e800003587800a06e8800d0
:101b600030c4b30080cf510002003a0040c1b3003e
:101b70001a00370040c5b30080cf51000300320087
:101b80007040500080cf510009003a0070c0b3008f
:101b90001feab7001fcabf001eeab700f05280005c
:101ba00001538000b0528800c15288000e003700f7
:101bb00040c6b30080cf510002003a0070c0b300ad
:101bc0000600370060c5b30080cf510002003a0024
:101bd00060c0b3000100370020c0b3001feab700a7
:101be0001fcabf001eeab70020c0b30021eab70039
:101bf0002f00370021cabf00e14f50002c003600f3
:101c00001fcabf00e24f50000300360003407800b7
:101c10001dcab6001deab700a06e80000358780008
:101c2000a06e88001f6aed00f8a12000184478001b
:101c30000804e0001e003a000800780021eab7001e
:101c4000e34f51000600320041c829008083200084
:101c5000c2f9070010c0b30045eeb700140037000a
:101c60001ecabf000080fb000000e90061dd20000b
:101c700060c078001d4ae3000a003a00e2a120009b
:101c8000124178000281fb0060e02000acf90700ff
:101c900010c0b3003feeb700080078003eeeb7007a
:101ca0000300370010c0b3003eeeb7008044780058
:101cb0000ec2bf000008a30085ff3a000904e0003f
:101cc0000500320081c9290080832000a3f90700a4
:101cd00010c0b30045eeb7008520a9004f04be0038
:101ce0004f03be004f02be004f01be004f00be00ba
:101cf0003600f90000400600809fbe00821f780079
:101d000018c2bf000018a300140032001822a90056
:101d10001200370018c2bf000018a30001003200f3
:101d20001822a90018c2bf000028a3000200320038
:101d3000e010800009003700b0538000e2108000fe
:101d4000b1a7200002f078000000e800b05388003e
:101d5000ff0f500001003600762aef0018c2bf00c6
:101d60000008a300ebff3a008700a9004f017800ac
:101d70004f00be0000400600809fbe00829fbe0054
:101d8000f05280000153800061014000e081480072
:101d9000f252880003538800f0ff2500d183200011
:101da000800f5100818f5900020036005e2aef003b
:101db000602aef00404ee2000c00320081538000a8
:101dc0008100e9008153880004003a0071538000cb
:101dd00081538800d642a800040037006053800079
:101de000808f500001003100d642a9004a4ae2002b
:101df00024003200414ee2000f0032004a4ee20061
:101e000009003200d5c2bf000008a300060032005e
:101e1000f252800003538000d2528800e3528800bf
:101e20004a6eef000e003700d5c2bf000008a300c5
:101e300014003a00110037004a4ee2000c00320054
:101e4000d5c2bf006140600009003a00f252800034
:101e500003538000d2528800e35288004aeeb70054
:101e6000782aef0010c0b30022eab700050037005f
:101e7000d5c2bf000008a3000200320010c0b300aa
:101e80004aeeb700614180008100e90061418800ad
:101e900021003a002748e2000c00320001007800df
:101ea00027e8b700404180000000e0000400320055
:101eb0007041880060418800414188000e00370071
:101ec00073418000634188000b00370010c0b300ed
:101ed00027e8b700504180000000e0000400320015
:101ee000804188006041880051418800020037002d
:101ef000804180006041880071822000914078001c
:101f0000e1c06000c308dd00d6c2bf000034a100fc
:101f100001407000d6e2b7006a2aec008460a90094
:101f20004f01be004f00be0000400600401680007a
:101f30008040eb004c0eb6000100320011c0b3002f
:101f40000104a2000180fb00000006004216800090
:101f50008041eb000080fb0000004000c1e4200055
:101f600001004000100161000100320013c0b30005
:101f70000304a2000380fb000000060001003700fc
:101f8000000000000000e900e10f4000fcff3a0003
:101f900000000600889fbe000044780089002000f1
:101fa0000c0037000804e00002003d00d602a80043
:101fb00001003700d602a90050002000efff070003
:101fc000cb02a8000844440030002000ebff0700cb
:101fd000cb02a9008904e900e18f4400f1ff3a0037
:101fe0004f04be00000006000400fa00e2bf9f009c
:101ff000f3bf9f00e7ff07007ff89700e5ff0700aa
:102000006ff89700e3ff07005ff89700e1ff070014
:102010004ff89700dfff07000080fa00000006007d
:10202000889fbe008a1f7800000578000044eb00fe
:10203000890020001000370008444400cb02a800ab
:1020400050002000cdff0700401680008a004500a8
:10205000c2e42000828040001100600001003200d4
:102060000804a00030002000c4ff0700cb02a90034
:1020700050002000c1ff07008904e900e18f4400ff
:10208000edff3a000880fb004f0578004f04be00ca
:1020900000000600889fbe008a1f780000057800b7
:1020a000e304410001407800baff07004800200027
:1020b000030037000a007800d9ff07008054780039
:1020c0000804e900e10f4400faff3a004f057800e8
:1020d0004f04be0000000600889fbe008a1f7800e3
:1020e00080017800010278000244780067056400ee
:1020f000c9e5200003003700840f500007003200bc
:10210000e78444009980fb00194090004800dd00fe
:1021100001007000f8ff3a002b0037008380410077
:1021200040e52000e10078004116880050002000c2
:1021300092ff0700594090000080fb000000ea0079
:102140004f00de006101b900c311dd000200200074
:102150000884fb000848a30001003a000390a00097
:1021600030c0b300a0ff0700694090000080fb0072
:102170004700dd000838a30002003a008000780024
:1021800002003700800078000160a0004b50dd00a5
:102190000080700001002000c001dd00020020006e
:1021a000000171008181710050c0b3008eff0700f3
:1021b00000ef2000401688009980fb001940900035
:1021c0004800dd00010070004f0578004f04be009c
:1021d00000000600889fbe008a1f78004bcabf001f
:1021e0000084fb001ac0b3008004eb000a407800b2
:1021f000484ab60009003200ee80440020a32000c7
:1022000061417800315280008041eb000900780084
:10221000b1ff07000804e900040032000a45450048
:102220008904e800e48f5400f0ff3a0000e0200049
:10223000401688005000200050ff070000ccb3007b
:1022400054ff07004f0578004f04be000000060051
:10225000881f780000c0eb004eff07000802200036
:102260000b003700cb02a8005000200043ff0700fe
:10227000401680000000eb000000e800e40f500072
:10228000fdff3a00cb02a900300020003bff070011
:102290000804e900e10f4400f2ff3a004f0478001f
:1022a00000000600889fbe008a1f780000057800a5
:1022b0000184e8000040eb0036ff070039002000f1
:1022c000030037000a00780055ff0700005478002b
:1022d0008904e900e18f4400faff3a000a0078001f
:1022e0004fff0700384090000004e00002003d006e
:1022f00049449800020037000040eb004044980039
:102300004f0578004f04be00000006001000fa00e0
:10231000889fbe004bcabf008084fb0002012000e2
:102320008000eb007480570024f807000040eb00a9
:1023300018ff07000802200016003700cb02a80093
:10234000500020000dff0700461680008002eb00c1
:10235000c7e42000748257001400be000001400052
:1023600081814800028abe0037006300020032000b
:102370000200a000028abe008502e800640242005a
:10238000e48f5200f4ff3a00cb02a9003000200095
:10239000fafe07000804e900e10f4400e7ff3a00f5
:1023a00013c0b3000002eb007381570003407800b4
:1023b000484ab6000e003200a05880008000780025
:1023c000a242900085587800a1588800924290005f
:1023d000854878008080e800a158880092487800fd
:1023e00063004000a05888008904e900050032001d
:1023f00083c141000402e80064014100e40f52007f
:10240000eaff3a0070528000502ab4004f04be0028
:102410000080fa000000060080017800c2e520007c
:1024200004003700830f500001003a00100005003f
:10243000670141009280fb00124090004800dd00df
:1024400001007000f7ff3a000000060080017800ec
:10245000c2e5200003003700830f50000700320060
:10246000670141009280fb00124090004800dd00af
:1024700001007000f8ff3a000000060042409000a2
:102480000080fb00000006000c00fa00889fbe00e0
:102490008a1f7800000478008000400040e520009a
:1024a000e10078004116880050002000b3fe0700cc
:1024b0003a002000460037000081eb008081eb00ed
:1024c00000c0eb00c8fe07000081eb008081eb003c
:1024d00000c0eb00c4fe07000081eb008081eb0030
:1024e00000c0eb00c0fe0700e2ff2f00f3ff2f004b
:1024f00000c0eb00bcfe070040012000ddf8070033
:10250000020020000300220030c0b300b6fe070026
:1025100040012000d7f80700ea845700090178003d
:10252000b1c0b30008007800dafe07004fb897008a
:1025300001002100010060006101b800c010dd0051
:10254000000020006011b800e00f5000e08f58003c
:102550001c00320030c0b300a3fe07000901780060
:10256000b1c0b30008007800cafe070072815700ae
:1025700091c0b30008007800c6fe07006e815700c6
:10258000a1c0b30008007800c2fe07007fb097002a
:102590008fb89700e00f5000e08f580009003a0014
:1025a0001fb99700afb9970000002000011020006c
:1025b000800f5100818f590002003a001100200065
:1025c000070037000060fe0020032000a9f8070084
:1025d0000a05e900e10f4500b7ff3a008000eb0073
:1025e00000ef200040168800010078004f057800b9
:1025f0004f04be000080fa0000000600889fbe0065
:102600008a1f7800486aef000005eb0019c0b3008c
:102610000a047800080078009bff07000000e00033
:10262000040032000a05e80009407800484ab70073
:1026300048eab70089c444000804e800e40f5400e5
:10264000f4ff3a000a0078004f0578004f04be00fe
:1026500000000600889fbe008a9fbe004bcabf00d4
:102660000084fb001bc0b3005a8020008004eb00f4
:102670000b407800484ab6000a0032000a01780090
:1026800091c0b3000900780082fe07006401450094
:10269000a1c0b300090078007efe07000804e9002d
:1026a000050032008bc54500680545008904e80037
:1026b000e48f5400eeff3a00376eef004f05be0086
:1026c0004f04be00000006000400fa00889fbe0010
:1026d0008a1f780000457800014478008084fb0060
:1026e0008980440040e52000e10078004116880020
:1026f000200320005ff807000840780025fe07004f
:10270000a00020005bf807000a4078000ffe0700d9
:102710000000e000fcff3200ea805700090078006a
:10272000e0fe070000ef2000401688004f0578000b
:102730004f04be000080fa0000000600889fbe0023
:102740008a1f78004bcabf008084fb001ac0b30008
:102750000004eb000a407800484ab6001600320038
:102760006e00440021a3200060c1780013c0b300b4
:10277000710020000800780057fe0700400120008b
:102780003cf8070011c8b30008407800ceff0700ee
:102790004001200037f8070021c8b3000840780046
:1027a000c9ff07004001200032f807000060fe006a
:1027b0008904e900040032000a4545000804e800e5
:1027c000e40f5400e3ff3a004f0578004f04be00c9
:1027d00000000600889fbe00a1e2a900a8a2ef00a9
:1027e0000004eb0068168800601680000016880060
:1027f000f0e02100301688000010200090168800bc
:1028000000012000f016880000ef2000401688002c
:1028100008178800d722a90040a7a900985288006d
:1028200008088800f07f2100100888000421a90012
:1028300095c0bf00f1c8b3000140600001c6b300fd
:102840000140700095e0b7008460a90005e1a80090
:1028500042c0bf007f4060000140700042e0b7000e
:102860005e2aef00602aef000800780040eeb70013
:1028700010c0b3004beab700490620003952880067
:102880000004fd004aeab70041eeb70044eeb7008d
:102890000004fd0020032000f6f707000004fd00ff
:1028a0003eeeb7003feeb70042eeb70049eab70090
:1028b00018eab7000004fd008941880079418800ca
:1028c000694188000800780027e8b700584188006f
:1028d000484188000004fd00bae8b700b9e8b70035
:1028e000b8e8b7000004fd00d662a9000004fd00ae
:1028f00026e8b70048eab7007aeab700bee8b700b2
:1029000025e8b7000004fd004f04be0000000600eb
:10291000a0cab30018ebb70050c5b30019ebb7005d
:1029200080c8b3001aebb70040c4b3001bebb7007c
:10293000486eef00522aef0010002000305388004c
:10294000682aef005a2aef005c2aef00622aef00a3
:10295000642aef0000c3b30023eab70024eab700fb
:10296000296aef001b6aef000064200070538800a2
:102970008053880000322000605388004c6aef00ca
:10298000502aef003d6eef00722aef00742aef002c
:10299000762aef00782aef00216aef00df69ef0066
:1029a0001a6aef00166aef00496eef0050c0b300dc
:1029b00028eab700196aef00bc68ef003b6eef0031
:1029c0003c6eef003a6eef00396eef00456eef009f
:1029d000436eef00376eef006a2aef00442aef00e3
:1029e000226aef00256aef00266aef00276aef00ef
:1029f000baf90700414ee20004003200d5c2bf0020
:102a0000614060000700320005003700d5c2bf00fa
:102a10000008a300020032004a6eef0002003700f7
:102a200010c0b3004aeeb7008c60a8008d20a8004b
:102a30004a4ae20001003200a3fb07000000060042
:102a4000d1f60700004178000004e000fcff3a00e6
:102a50008520a9008540a9008700a9008720a9003a
:102a60008c60a90020a3200071e020001100090063
:102a7000315878003ecabf004beab700b18b200046
:102a800091407800814f5000050036000100780029
:102a90004beab70010c0b300bae8b7000200370035
:102aa00002007800bae8b7003fcabf004aeab700a0
:102ab000a1a32000914078008180fb003bcabf00a9
:102ac0004800dd0001017000c1a3200091407800a2
:102ad0008180fb003dcabf004800dd00810170001d
:102ae000f25288000353880032cabf0061006000c0
:102af0000100320010c0b30041eeb70041a3200036
:102b0000914078008180fb0035cabf004800dd009d
:102b100001007000305288003ffe07000000e00016
:102b200004003a0010c0b300b9e8b7002003200049
:102b3000305288003052800044fe070038eeb70063
:102b40000081fb0030528000110009000280d80093
:102b500047eeb7004bcabf000080fb006300b9001e
:102b60007052880021a32000914078008180fb00f2
:102b700033cabf004800dd00810070000118a300c7
:102b800002003200406eef000200370010c0b300b8
:102b900040eeb700648060000400320010c0b30053
:102ba00026e8b70040a7a8000200370026e8b700d3
:102bb00040a7a90061a32000914078008180fb001c
:102bc00037cabf004800dd00010070008041880066
:102bd00081a32000914078008180fb0039cabf00aa
:102be0004800dd00010070007041880060418800ed
:102bf0002768ef002a28ef002828ef00d662a900f6
:102c000010c0b30042eeb700446eef0040ff370043
:102c1000889fbe008a9fbe008c9fbe00c782a8000e
:102c2000cb82a9003f6eef00216aef00d662a900b7
:102c3000d6c2bf004300de00610060004200dd003c
:102c4000612d2000914078000124a10080c0700017
:102c500001007800d6e2b700522aef008c60a9008c
:102c60008d20a8001ac0b3000046eb008c46780007
:102c70001b0020000b047800097721000060fe0093
:102c8000a0002000fbf6070007f7070011a32000b3
:102c9000914078000104e1000300320031eab700fe
:102ca0001000200019f807003f4ee2001200320029
:102cb0003f6eef002568ef00216aef0061e0200021
:102cc0009140780020c6b30080cf500002003a0047
:102cd0000df707000800370030c4b30080cf500064
:102ce00005003a0056ff07004f06be004f05be0024
:102cf0004f04be00000006008b05e90002003a0008
:102d0000bef607004b0620000804e90008003a0060
:102d10000d04e00003003200d642a9008846780086
:102d200002003700d642a8001dc0b300a800200052
:102d30000a45e90009003a000c04e00004003200f2
:102d4000d662a9002ac0b3000046eb00030037009a
:102d5000d662a8002ac0b3001cc0b3000900e0007e
:102d6000010032008904e900304ae200c3ff32006a
:102d70002548e200c1ff3200520ae200bfff3a00dc
:102d80000900e000bdff3a00c782a900200320002f
:102d9000b8f60700c782a80009ee2200b7ff370087
:102da00061e020009140780040c5b30080cf500022
:102db00001003a0002f7370040c4b30080cf500052
:102dc00001003a0075f7370040c7b30080cf5000cc
:102dd00004003a0010c0b30049eeb7003a6eef00ad
:102de0000000060090c6b30080cf500004003a00f7
:102df00010c0b30049eeb7003aeeb700000006007d
:102e000040c6b30080cf500002003a001ff7070011
:102e10005600370030c5b30080cf500003003a00a1
:102e200010c0b30043eeb7000000060080c7b30037
:102e300080cf500002003a00496aef0017003700c7
:102e400030c4b30080cf500003003a0010c0b3007c
:102e500049eab7001200370070c6b30080cf5000b7
:102e600003003a0010c0b30016eab70004003700b0
:102e700070c4b30080cf500004003a0010c0b3000b
:102e80001beab700196aef000000060050c4b30047
:102e900080cf500004003a009bfa070010c0b30036
:102ea00044eeb7000000060020c6b30080cf5000fb
:102eb00001003a0094f6370000c5b30080cf5000ff
:102ec00014003a00bc48e2003d003a00a1a42000f2
:102ed0009140780063c05000e14f500003003e0075
:102ee00010c0b300bce8b7001b003700e2cf5000b1
:102ef00002003a0010c0b30016eab70010c0b300d9
:102f00001beab700bce8b70030c0b300bee8b700aa
:102f10001100370000c7b30080cf50000f003a0007
:102f2000bc48e20026003200bc68ef00a1a42000eb
:102f30009140780063c05000e14f50000600360019
:102f4000e2cf500002003a0010c0b30016eab7000a
:102f500010c0b3001beab70060f8370060c5b300cb
:102f600080cf500004003a0039f7070010c0b300ca
:102f700039eeb7000000060020c7b30080cf500034
:102f800003003a00366eef0010c0b30005003700b2
:102f900030c6b30080cf500004003a0010c0b30028
:102fa00036eeb70037eeb7000000060020c5b300cc
:102fb00080cf500002003a00442aef002568ef005d
:102fc00000000600b8c8bf00030032000040e9005e
:102fd000b8e8b7000c003a0071ca2900ba48e2000c
:102fe00004003a0041cc2900b948e20001003a004f
:102ff000c1cd290080832000d8f40700b4f5070074
:10300000a0c0b300b8e8b7004c6aef00502aef0048
:1030100000000600484ee2000400320040ba2000e2
:10302000a0528800e0bb20000300370000cc200045
:10303000a0528800a0cd2000a05888000002eb001c
:10304000845288008c60a900a0528000e1a5200075
:103050009140780041409800f6a520001643780082
:103060005640980007a620009743780067409800d4
:1030700011a620009140780071409800a052800075
:10308000a6a520001643780006489800b7a52000a2
:103090009743780017489800c1a520009140780018
:1030a00021489800d6a5200016437800364898009d
:1030b0008c60a800a052800077a22000974378007f
:1030c00077509800a052800061a2200091407800c3
:1030d00001589800a052800056a2200016437800a4
:1030e00016589800a052800027a620009743780029
:1030f0004748980031a62000914078005148980038
:1031000046a62000164378006648980057a620007f
:103110009743780077489800a052800091a2200041
:103120009140780061509800a052800046a2200093
:103130001643780056509800a35280003653800002
:103140004753800061004300e0804b0080497800d5
:103150004801de0092419800a14198004808de0035
:10316000b0419800a052800044509800a0528000c6
:10317000045098001450980024509800345098003f
:1031800000000600889fbe00fff40700804478001e
:103190000004e000fcff3a00885280007b004400fd
:1031a000fe004400484ee20014003200c2b9200084
:1031b00083b120000300090033597800a0ebb70069
:1031c0004800de00a1ebb70040c4b300a2ebb7009b
:1031d00000ccb300a3ebb70000ba2000edf4070069
:1031e000e1bb200000f47800c0b92000b05888008e
:1031f0000900780048eeb7001300370082cb2000aa
:1032000083b120000300090033597800bcecb700fb
:103210004800de00bdecb70040c4b300beecb70010
:1032200000ccb300bfecb700c0cb2000d9f407003e
:10323000a1cd200000f4780080cb2000b058880099
:1032400010c0b30048eeb700300220000800400074
:103250009052880016f507004c6aef00502aef00e4
:10326000305380004153800061004000e0804800fe
:1032700030538800415388004f04be000000060010
:1032800019cabf00020032000040e90019eab70085
:10329000214ae2000a003200206aec0020cabf0086
:1032a000fd4f500006003600216aef0091ce290044
:1032b0008083200029f4070010c0b30045eeb7005a
:1032c0003e4ee200060032003e6eef00c1cf290004
:1032d0008083200021f4070010c0b30045eeb70042
:1032e0002648e2000b003200215280008100e800f5
:1032f0002152880030382000808f500005003600b1
:10330000496aef0010c0b30025e8b70044eeb700eb
:103310007ffd0700000006000060fe004c4ae2004e
:1033200001003a003bff0700d722a800f7fb070087
:10333000d722a9004c4aec004ceab70071e4200007
:10334000914078000104e10007003900b948e2002b
:1033500002003a00ba48e2000100320019ff3700cb
:1033600088ff0700c6ff07000000060019fd0700e0
:103370000468ef000228ef0065fd070010c0b300ed
:1033800004e8b7009dfc0700bbe8b7000004e000bc
:1033900007003a0011d1290080832000eff30700d5
:1033a000cbf407004006200032f50700f2ff37009b
:1033b000494ae20003003200496aef00a0fd07001d
:1033c0000100370012fe0700dcfc070081fb07004c
:1033d000446eef0048003700d4fa0700000178007f
:1033e0000000e00003003200cbff07000228ef00de
:1033f0000c003700114080008100e8001140880077
:1034000000352c00808f50000600360012408800e6
:10341000f1d1290080832000d0f3070010c0b30051
:1034200045eeb7003f4ee200050032003f6eef0070
:10343000442aef002568ef0059fe07002e003700f0
:103440004a4ae2000800320062f707000004e00088
:103450000200320016f80700270037001b4ae2007e
:1034600001003200b8f80700520ae20022003a00d8
:103470000448e200060032000468ef00b1d22900df
:1034800080832000b5f3070010c0b30045eeb700fd
:103490003d4ee20002003200b6f40700160037008d
:1034a000434ee2000200320019f507001200370017
:1034b000454ee2000200320085f407000e0037009e
:1034c000394ee20002003200f3f507000a0037002f
:1034d000374ee200080032005dfb0700364ee20086
:1034e0000200320095fc0700366eef0059fc070021
:1034f00038fb070024f60700444ee200b6ff320016
:04350000a0ff3700f1
:020000040000fa
:0200000401f009
:04000000e6ff000017
:020000040000fa
:0200000401f009
:04000400e37f000096
:020000040000fa
:0200000401f009
:04000800deff000017
:020000040000fa
:0200000401f009
:04001400ffff0000ea
:020000040000fa
:10000800b81d0000b81d0000b81d0000b81d000094
:10001800b81d0000b81d0000b81d0000b81d000084
:10002800b81d0000b81d0000b81d0000bc0e00007f
:10003800b81d0000b81d0000b81d0000b81d000064
:10004800b81d0000520d0000f00c0000b81d0000a3
:10005800b81d0000b81d0000b81d0000b81d000044
:10006800b81d0000b81d0000b81d0000b81d000034
:10007800b81d0000b81d0000b81d0000b81d000024
:100088007c0e00002e0d0000b81d0000b81d0000f9
:10009800b81d0000b81d0000b81d0000b81d000004
:1000a800b81d0000b81d0000b81d0000b81d0000f4
:1000b800b81d0000b81d0000b81d0000b81d0000e4
:1000c800b81d0000b81d0000b81d0000b81d0000d4
:1000d800b81d0000b81d0000b81d0000b81d0000c4
:1000e800b81d0000b81d0000b81d0000b81d0000b4
:0800f800b81d0000b81d000056
:020000040000fa
:10010800b81d0000b81d0000b81d0000b81d000093
:10011800b81d0000b81d0000b81d0000b81d000083
:10012800b81d0000b81d0000b81d0000bc0e00007e
:10013800b81d0000b81d0000b81d0000b81d000063
:10014800b81d0000520d0000f00c0000b81d0000a2
:10015800b81d0000b81d0000b81d0000b81d000043
:10016800b81d0000b81d0000b81d0000b81d000033
:10017800b81d0000b81d0000b81d0000b81d000023
:100188007c0e00002e0d0000b81d0000b81d0000f8
:10019800b81d0000b81d0000b81d0000b81d000003
:1001a800b81d0000b81d0000b81d0000b81d0000f3
:1001b800b81d0000b81d0000b81d0000b81d0000e3
:1001c800b81d0000b81d0000b81d0000b81d0000d3
:1001d800b81d0000b81d0000b81d0000b81d0000c3
:1001e800b81d0000b81d0000b81d0000b81d0000b3
:0801f800b81d0000b81d000055
:020000040000fa
:10350400245000004d5400004b33000031330000c0
:103514002c31000000240000504d0000544b0000ea
:1035240033300000312c0000320000002450000031
:103534004d5400004b330000313400002c300000a7
:103544002c3100002c3000002c3100002c31000004
:103554002c3100002c3000002c3000002c300000f6
:103564002c3000002c3000002c3000002c300000e7
:103574002c3000002c3000002c3000002c300000d7
:1035840000240000504d0000544b00003331000073
:10359400332c000030000000245000004d54000083
:1035a4004b330000303100002c30000000240000b8
:1035b400504d0000544b000033310000342c000007
:1035c400302c0000312c0000302c0000312c000085
:1035d400302c0000302c0000302c0000302c000077
:1035e400302c0000302c0000302c0000302c000067
:1035f400302c0000302c0000302c0000302c000057
:103604003000000024500000475200004d490000e3
:103614002c2c00002c2c00002c2c00002c52000020
:103624000024000050470000524d00004f2c0000c1
:103634002c3200000024000050470000524d0000ce
:103644004f2c00004750000047470000412c000069
:103654003100000024500000475200004d4f00008c
:103664002c470000505200004d4300002c31000054
:103674000024000050470000524d0000432c00007d
:103684002c2c00002c2c00002c2c00002c2c0000d6
:103694002c2c00002c3200002c3300002c000000e5
:1036a40024500000475200004d430000312c00001c
:1036b4002c2c00002c2c00002c2c00002c5700007b
:1036c4002c2c00002c2c00002c00000024500000a6
:1036d400475200004d430000312c00002c2c000008
:1036e4002c2c00002c2c00002c4e00002c2c000054
:1036f4002c2c00002c000000245000004752000035
:103704004d4300002c3200002c3400003030000007
:103714002c2c00002c2c00002c2c00002c2c000045
:103724002c3000002c3200002c3300002c3100001f
:103734000024000050470000524d000043310000b7
:103744002c3100002c3100002c3100002c2c000006
:103754002c2c0000312c00004e2c00004e2c0000bc
:10376400322c0000310000002450000047520000b9
:103774004d4f00002c47000050470000534100000b
:103784002c3100000024000050470000524d00007e
:103794004f2c00004750000047530000562c0000f7
:1037a4003100000024500000475200004d4f00003b
:1037b4002c500000475200004d5400002c310000f2
:1037c40000470000505300002045000072720000c2
:1037d4006f720000204e00006f2000002a000000dd
:1037e40047500000532000004c6500006e67000045
:1037f4007468000020450000727200006f720000bf
:10380400004700005053000020430000686500009a
:10381400636b0000737500006d20000045720000aa
:10382400726f000072000000475000005320000037
:10383400536500006e640000204f000076650000b0
:10384400726600006c6f0000772000004572000073
:10385400726f000072000000475000005320000007
:10386400496e000070750000742000004f7600005f
:1038740065720000666c00006f7700002045000050
:10388400727200006f720000004700005047000091
:10389400474100002c00000047500000524d00003a
:1038a400432c0000005500006e6b00006e6f00009a
:1038b400776e0000205200004d43000020430000ba
:1038c40068720000004700005053000020500000c0
:1038d40061720000736500002045000072720000f0
:1038e4006f720000005300004b47000020490000a5
:1038f4006e6900007420000045720000726f0000c1
:10390400720000004261000064200000496e000063
:10391400636f00006d6900006e67000020500000b6
:10392400616300006b6500007400000045720000d4
:1039340072200000696e00002052000076720000c0
:10394400204900006e740000004300006f6e000008
:10395400666900006720000045720000726f000075
:10396400723a0000204e0000756d000020430000f4
:103974006f6e0000766500007274000065720000ce
:1039840073000000436f00006e660000696700006a
:1039940020450000727200006f7200003a2000009f
:1039a400577200006f6e0000672000005350000043
:1039b40053000000436f00006e660000696700005a
:1039c40020450000727200006f7200000049000080
:1039d4006e70000075740000204300006f6d0000dd
:1039e4006d200000546900006d6500006f750000d3
:1039f40074000000496e000070750000742000001f
:103a040043680000656300006b730000756d00007f
:103a140020450000727200006f720000004e00002a
:103a24006f200000436f00006e7600006572000096
:103a340074650000727300000041000044430000fc
:103a4400204e00006f7400002052000064790000d2
:103a5400005200006573000074610000727400007d
:0c3a6400204600006c61000067000000bc
:020000040000fa
:103a70004c0e0000aa00000002000000010002003d
:103a8000000400000800e0001ed01e00b01e700000
:103a90001e060000d60002000104070000d6000048
:103aa000020004000f006b00000500000319000075
:103ab0004000050001021e00003600000a0002005e
:103ac00032002000000a0100013c00001b000a0037
:103ad00000016400001000000a01000078000e00e0
:103ae000000a000000c8000008000a00010c0000e5
:103af000000000000000000000829a008d9a9800eb
:103b00009a000000c39ace009ad99a0000000400df
:103b10009b049b00139b1d009b2c9b003b9b520016
:103b20009b000000049b04009b139b001d9b2c002a
:103b30009b3b9b00689b000000049b00049b1300c0
:103b40009b1d9b002c9b7e009b9b9b000000b60056
:103b50009bb69b002c9bc5009bd49b0000000000e3
:103b6000000800004c0600000000000000000000fb
:020000040000fa
:043b70000000fe0053
:00000001FF
